{
  "_format": "hh-sol-artifact-1",
  "contractName": "Planner",
  "sourceName": "contracts/Planner.sol",
  "abi": [
    {
      "inputs": [
        {
          "internalType": "contract Token",
          "name": "_token",
          "type": "address"
        }
      ],
      "stateMutability": "nonpayable",
      "type": "constructor"
    },
    {
      "inputs": [
        {
          "internalType": "address",
          "name": "",
          "type": "address"
        }
      ],
      "name": "investor",
      "outputs": [
        {
          "internalType": "uint256",
          "name": "user_amount",
          "type": "uint256"
        },
        {
          "internalType": "uint256",
          "name": "total_amount",
          "type": "uint256"
        },
        {
          "internalType": "uint256",
          "name": "invested_time",
          "type": "uint256"
        },
        {
          "internalType": "uint256",
          "name": "releasing_time",
          "type": "uint256"
        }
      ],
      "stateMutability": "view",
      "type": "function"
    },
    {
      "inputs": [
        {
          "internalType": "uint256",
          "name": "_amount",
          "type": "uint256"
        },
        {
          "internalType": "uint256",
          "name": "_duration",
          "type": "uint256"
        }
      ],
      "name": "rateOfInterest",
      "outputs": [],
      "stateMutability": "nonpayable",
      "type": "function"
    },
    {
      "inputs": [],
      "name": "token",
      "outputs": [
        {
          "internalType": "contract Token",
          "name": "",
          "type": "address"
        }
      ],
      "stateMutability": "view",
      "type": "function"
    },
    {
      "inputs": [],
      "name": "withdrawl",
      "outputs": [],
      "stateMutability": "nonpayable",
      "type": "function"
    }
  ],
  "bytecode": "0x608060405234801561001057600080fd5b50604051610b89380380610b898339818101604052810190610032919061008d565b806000806101000a81548173ffffffffffffffffffffffffffffffffffffffff021916908373ffffffffffffffffffffffffffffffffffffffff16021790555050610111565b600081519050610087816100fa565b92915050565b60006020828403121561009f57600080fd5b60006100ad84828501610078565b91505092915050565b60006100c1826100da565b9050919050565b60006100d3826100b6565b9050919050565b600073ffffffffffffffffffffffffffffffffffffffff82169050919050565b610103816100c8565b811461010e57600080fd5b50565b610a69806101206000396000f3fe608060405234801561001057600080fd5b506004361061004c5760003560e01c80631b1cd4ff146100515780633aedfb8b14610084578063e9f55a2b1461008e578063fc0c546a146100aa575b600080fd5b61006b600480360381019061006691906105f7565b6100c8565b60405161007b94939291906107ed565b60405180910390f35b61008c6100f8565b005b6100a860048036038101906100a39190610649565b6102f4565b005b6100b2610594565b6040516100bf9190610792565b60405180910390f35b60016020528060005260406000206000915090508060000154908060010154908060020154908060030154905084565b6000600160003373ffffffffffffffffffffffffffffffffffffffff1673ffffffffffffffffffffffffffffffffffffffff16815260200190815260200160002060010154141561017e576040517f08c379a0000000000000000000000000000000000000000000000000000000008152600401610175906107ad565b60405180910390fd5b42600160003373ffffffffffffffffffffffffffffffffffffffff1673ffffffffffffffffffffffffffffffffffffffff1681526020019081526020016000206003015410610202576040517f08c379a00000000000000000000000000000000000000000000000000000000081526004016101f9906107cd565b60405180910390fd5b60008054906101000a900473ffffffffffffffffffffffffffffffffffffffff1673ffffffffffffffffffffffffffffffffffffffff1663a9059cbb33600160003373ffffffffffffffffffffffffffffffffffffffff1673ffffffffffffffffffffffffffffffffffffffff168152602001908152602001600020600101546040518363ffffffff1660e01b815260040161029f929190610769565b602060405180830381600087803b1580156102b957600080fd5b505af11580156102cd573d6000803e3d6000fd5b505050506040513d601f19601f820116820180604052508101906102f19190610620565b50565b60008060008390506000859050600382141561031e576064816103179190610899565b935061038e565b600682141561034757606460028261033691906108ca565b6103409190610899565b935061038d565b600982141561037057606460038261035f91906108ca565b6103699190610899565b935061038c565b606460048261037f91906108ca565b6103899190610899565b93505b5b5b818461039a91906108ca565b925080600160003373ffffffffffffffffffffffffffffffffffffffff1673ffffffffffffffffffffffffffffffffffffffff1681526020019081526020016000206000018190555082816103ef9190610843565b600160003373ffffffffffffffffffffffffffffffffffffffff1673ffffffffffffffffffffffffffffffffffffffff1681526020019081526020016000206001018190555060008054906101000a900473ffffffffffffffffffffffffffffffffffffffff1673ffffffffffffffffffffffffffffffffffffffff166323b872dd3330846040518463ffffffff1660e01b815260040161049293929190610732565b602060405180830381600087803b1580156104ac57600080fd5b505af11580156104c0573d6000803e3d6000fd5b505050506040513d601f19601f820116820180604052508101906104e49190610620565b5042600160003373ffffffffffffffffffffffffffffffffffffffff1673ffffffffffffffffffffffffffffffffffffffff168152602001908152602001600020600201819055508162278d0061053b91906108ca565b426105469190610843565b600160003373ffffffffffffffffffffffffffffffffffffffff1673ffffffffffffffffffffffffffffffffffffffff16815260200190815260200160002060030181905550505050505050565b60008054906101000a900473ffffffffffffffffffffffffffffffffffffffff1681565b6000813590506105c7816109ee565b92915050565b6000815190506105dc81610a05565b92915050565b6000813590506105f181610a1c565b92915050565b60006020828403121561060957600080fd5b6000610617848285016105b8565b91505092915050565b60006020828403121561063257600080fd5b6000610640848285016105cd565b91505092915050565b6000806040838503121561065c57600080fd5b600061066a858286016105e2565b925050602061067b858286016105e2565b9150509250929050565b61068e81610924565b82525050565b61069d8161096c565b82525050565b60006106b0601583610832565b91507f596f752068617665206e6f7420696e76657374656400000000000000000000006000830152602082019050919050565b60006106f0601f83610832565b91507f596f752061726520756e646572206d6174757269747920706572696f642121006000830152602082019050919050565b61072c81610962565b82525050565b60006060820190506107476000830186610685565b6107546020830185610685565b6107616040830184610723565b949350505050565b600060408201905061077e6000830185610685565b61078b6020830184610723565b9392505050565b60006020820190506107a76000830184610694565b92915050565b600060208201905081810360008301526107c6816106a3565b9050919050565b600060208201905081810360008301526107e6816106e3565b9050919050565b60006080820190506108026000830187610723565b61080f6020830186610723565b61081c6040830185610723565b6108296060830184610723565b95945050505050565b600082825260208201905092915050565b600061084e82610962565b915061085983610962565b9250827fffffffffffffffffffffffffffffffffffffffffffffffffffffffffffffffff0382111561088e5761088d610990565b5b828201905092915050565b60006108a482610962565b91506108af83610962565b9250826108bf576108be6109bf565b5b828204905092915050565b60006108d582610962565b91506108e083610962565b9250817fffffffffffffffffffffffffffffffffffffffffffffffffffffffffffffffff048311821515161561091957610918610990565b5b828202905092915050565b600061092f82610942565b9050919050565b60008115159050919050565b600073ffffffffffffffffffffffffffffffffffffffff82169050919050565b6000819050919050565b60006109778261097e565b9050919050565b600061098982610942565b9050919050565b7f4e487b7100000000000000000000000000000000000000000000000000000000600052601160045260246000fd5b7f4e487b7100000000000000000000000000000000000000000000000000000000600052601260045260246000fd5b6109f781610924565b8114610a0257600080fd5b50565b610a0e81610936565b8114610a1957600080fd5b50565b610a2581610962565b8114610a3057600080fd5b5056fea2646970667358221220e5d402def344125712241be58b854397844cbd7f8a55c029bd1b58a87fe7853764736f6c63430008000033",
  "linkReferences": {},
  "deployedLinkReferences": {}
}